:0200000280007C
:1000000030260720810908007D0908007D090800C5
:100010007D0908007D0908007D0908000000000036
:100020000000000000000000000000007D09080042
:100030007D090800000000007D0908007D09080016
:100040007D0908007D0908007D0908007D09080078
:100050007D0908007D0908007D0908007D09080068
:100060007D0908007D09080000000000ED07080078
:100070000108080015080800290808000000000011
:10008000000000007D0908007D0908007D090800C6
:100090007D0908007D0908007D0908007D09080028
:1000A0007D090800000000007D0908007D090800A6
:1000B0007D0908007D0908007D0908007D09080008
:1000C0007D0908007D0908007D0908007D090800F8
:1000D0007D0908007D0908007D0908007D090800E8
:1000E0007D0908007D0908007D0908007D090800D8
:1000F0007103080010B5054C237833B9044B13B1D4
:100100000448AFF300800123237010BD5805072079
:1001100000000000940D0800084B10B51BB1084901
:100120000848AFF300800848036803B910BD074BC7
:10013000002BFBD0BDE81040184700BF00000000B6
:100140005C050720940D0800940D080000000000D5
:100150004160704781607047436A23F0FF03194391
:10016000416270470B680A7982B9DBB200EB431039
:100170000023C0F80032C0F80432C0F80832C0F8DA
:100180001432C0F81832C0F81C32704730B4DBB2F9
:1001900000EB4312D2F80042CD7924F4702444EAF3
:1001A0000544C2F800424C7954B1CC6844F0005484
:1001B000C2F804420C6944F00054C2F8084207E057
:1001C000CC68C2F804420C6900EB4313C3F8084240
:1001D000D2F80032097923F0E06343EA0163C2F800
:1001E000003230BC704700BF0B7800EB4312D2F8EE
:1001F00010228A6012F4000F26D010B44A793AB166
:100200000A6942F0005200EB4314C4F8082204E0EB
:100210000C6900EB4312C2F808428C6900EB4312F0
:10022000C2F814428A79042A04D9CC6900EB43123B
:10023000C2F818428A79120402F4702200EB4310CB
:10024000C0F81C22002001E00120704710BC70475C
:1002500070B588B0064600248DF80440044D009423
:1002600069463046A8470134082CF8D108B070BD63
:1002700065010800F8B546F2A81303FB02F40B1958
:10028000013BB3FBF4F3802B65D84FF4FA5404FB25
:1002900002F4B4EB510F60D84FF47A7303FB02F20F
:1002A00008274FF0FF363B46B1FBF4F5802D06D80A
:1002B00004FB1515B54202D23DB12E461F4601334F
:1002C000DBB214441A2BEFD100E01F4602FB07F209
:1002D000B1FBF2F1CBB2012B41D90446A7F10803DF
:1002E000026822F0010202601E4D5E00F71805EB65
:1002F0004707BA78013A120102F070007A78013AA1
:10030000120202F4E0620243F878013800F00700BC
:1003100002433B79013B1B0303F440531A43C9B228
:100320004B1E1B0403F4FE031343636120460E4B74
:100330009847236843F00103236000230B49226997
:10034000013312F4001F01D18B42F8D10748181A6B
:1003500018BF0120F8BD0020F8BD0020F8BD002026
:10036000F8BD00BFFC0C080051020800A086010087
:10037000FEE700BFF8B52B201F4CA0472C20A0475C
:100380001E4F1F4D3222394628461E4EB0471E4C86
:10039000322239462046B04728461C4EB0472046F8
:1003A000B0471B4900260E6001230B716FF06043BC
:1003B000CB604FF4E0130B612046164FB847164947
:1003C0000E6003230B710F23CB714E71CE60284654
:1003D000B8474FF0FF312846104DA8474FF0FF3186
:1003E0002046A847FF2120460D4B98474FF48052E6
:1003F0000C4B5A60F8BD00BF2909080000BD01057B
:1004000000400B407502080000800B4051020800BC
:10041000E4050720650108000C06072055010800C7
:100420005101080000E100E070B50D4C0025256089
:10043000032323710F23E3716571E560094E2146A3
:100440003046094B984725614FF00F33A361E361B4
:100450000823A37121463046044B9847284670BDB7
:100460000C06072000400B4065010800E901080068
:1004700010B50E480E4B98473E2100200D4B984773
:100480000D4CA0470028FCD00C4B98470C4A0D4B54
:100490009A620D4CA0470028FCD010200B4B9847C7
:1004A0000B4B98470148024B984710BD00BD010512
:1004B000A5000720A5080800F90808000909080098
:1004C000013F0D2000060E40190908003D080800F4
:1004D0002D0A080010B54FF40042224B5A600B2041
:1004E000214CA0470C20A0470D20A0470E20A0477C
:1004F0004FF060513B201D4CA0474FF060515520FC
:10050000A0474FF060515620A0474FF000610120F6
:10051000A0474FF000610020A0474FF04051342029
:10052000A0474FF040513520A0474FF000612F20E9
:10053000A0474FF000612E20A0470D496820A0473A
:100540000C495C20A0470C4A4FF440710B480C4BFF
:1005500098474FF000612B20A0474FF000612A2000
:10056000A04710BD501A0E402909080029060800AE
:10057000790000280100002801000008000E0E404C
:10058000FD0608004264B1F1805F16D004D8C1B105
:10059000B1F1006F0AD013E0B1F1405F11D0B1F1B9
:1005A000605F0ED0B1F1205F0AD17047016F036F19
:1005B0000B4023EA0203036702E0036F1343036760
:1005C00042607047416412F0010F14BF416601663A
:1005D00012F00A0F14BF0162416212F0020F02D042
:1005E000C0F8801004E012F0080F18BFC0F88410A3
:1005F00041610160704700BF10B44164019C0CB1BF
:10060000416600E001660BB1016500E041650AB199
:10061000016300E041630161016010BC704700BFED
:10062000C06C7047806C704770B582B00D4643094E
:1006300003F5001303F207735C0201F0F043B3F11A
:10064000205F30D006D8B3F1006F0AD0B3F1805FDD
:1006500018D049E0B3F1405F30D0B3F1605F2DD0E6
:1006600042E000F01F000126864032464FF0006154
:1006700020461F4B984715F0010F14BF666626668B
:10068000012032E000F01F000126864032464FF084
:1006900080512046164B984715F0010F14BF66662F
:1006A0002666012021E000F01F0101262A4606FAF5
:1006B00001F120460F4B9847304616E005F0605296
:1006C00000F01F01012605EA06030093C5F380032D
:1006D000B2F1605F14BF0022012206FA01F1204648
:1006E000054CA047304600E0002002B070BD00BFBE
:1006F00085050800C5050800F905080070B582B039
:1007000005460E46144602F0F043B3F1205F26D0B2
:1007100006D8B3F1006F0AD0B3F1805F13D034E094
:10072000B3F1405F1FD0B3F1605F1CD02DE00A46EB
:100730004FF00061164B984714F0010F14BF6E661E
:100740002E66012022E00A464FF08051104B984758
:1007500014F0010F14BF6E662E66012016E00D4BDB
:100760009847012012E004F0605204F00103009366
:10077000C4F38003B2F1605F14BF0022012231464E
:100780002846054CA047012000E0002002B070BDC3
:1007900085050800C5050800F90508002DE9F041A8
:1007A000044688460E4B9847054620460D4B984711
:1007B000054013D00C4C04F160062368434508D172
:1007C0006168294205D0E36840469847636825EA96
:1007D0000305B44202D01034002DEED1BDE8F08103
:1007E00021060800250608007405072008B50B211E
:1007F0000148024B984708BD000E0E409D070800B7
:1008000008B50C210148024B984708BD00100E4066
:100810009D07080008B50D210148024B984708BD07
:1008200000120E409D07080008B50E210148024B3A
:10083000984708BD00140E409D070800184A136B26
:1008400023F0700318431063936E13F0080F03D066
:1008500009E0013B03D11EE04FF4006310498A6EAA
:1008600012F0080FF5D00E4A136B23F0030343F088
:1008700002031363906E10F0080004D0002070474C
:10088000013B03D109E04FF4006305498A6E12F081
:10089000080FF5D07047012070470120704700BF56
:1008A00000060E4038B111490B6A114A1A40114B2B
:1008B00013430B6270470D48026A090289B222F4A1
:1008C0005C1323F0030343F45C1343F001030B4375
:1008D00003620246936E13F0010FFBD0034A136AC2
:1008E00043F09B7343F480331362704700060E405D
:1008F000FCFFC8FE02003701024B986E00F4803006
:10090000704700BF00060E404FF00052014B9A6244
:10091000704700BF00060E40024B986E00F00200C8
:10092000704700BF00060E402C281ED81F280CD888
:10093000114B9A6901238340934318D0012303FA92
:1009400000F00D4B18610020704720380A4BD3F897
:1009500008210123834093430BD0012303FA00F0C5
:10096000054BC3F8000100207047012070470020AC
:1009700070470020704700BF00060E40FEE700BF32
:1009800008B51E4B1E4A9A4203D01E4B1B4A9A4280
:1009900004D31D4B1D4A9A420FD31AE017491C4B32
:1009A0005B1A23F003030433154A134452F8040B73
:1009B00041F8040B9A42F9D1EBE7164B164AD21ACA
:1009C00022F003021A44043B002143F8041B934223
:1009D000FBD1124B23F0604222F07F0210498A6063
:1009E00003F16043B3F5801F03D28B6843F00053DB
:1009F0008B600C4B98470C4B9847FEE70000072094
:100A0000940D0800580507202C06072058050720DC
:100A1000570507205C0507202F0607200000080067
:100A200000ED00E0C10B0800490B08003E4B1B6BBA
:100A300003F00303032B5FD8DFE803F0020E2B2B38
:100A40003A4B5B6913F0800F14BF4FF400424FF430
:100A5000FA42374B1A604FE0334B1B6A13F0807F2A
:100A600003D0344A324B1A6046E0334A304B1A60A6
:100A70002D4B1B6A03F07003102B02D0202B04D0E7
:100A80003AE02E4A2A4B1A6036E02A4A284B1A606E
:100A900032E0254B1B6A13F0807F03D0254A244B9C
:100AA0001A6012E0244A224B1A601F4B1B6A03F0A3
:100AB0007003102B02D0202B04D006E01F4A1C4BE1
:100AC0001A6002E01B4A1A4B1A60174B1B6B03F0AB
:100AD0000303022B0DD1144A936A926A1448C3F39C
:100AE0000A41036801FB0333D2B2B3FBF2F30360A4
:100AF00002E0134A0E4B1A600B4B1B6B03F07003A2
:100B0000702B07D10A4A13680E49A1FB03135B0837
:100B100013607047044B1B6B0549C3F302120B684B
:100B2000D3400B60704700BF00060E40101A0E4005
:100B30002C010720001BB70000093D0000127A00BD
:100B4000001C4E0EABAAAAAA80B582B0144B9847DF
:100B5000144B9847144BB02283F82C23C02283F8FF
:100B60002B2393F82C33114AD36823F4E0631B043E
:100B70001B0C43F0BF6343F40033D3600C4B984726
:100B80000C4F0D4E0D4D01240094234622464FF488
:100B9000E4717B20B84721463046A847F3E700BF01
:100BA00071040800D504080000E100E000ED00E059
:100BB000750308002904080000400B405901080093
:100BC00070B50F4E0F4D761BB61018BF002405D020
:100BD000013455F8043B9847A642F9D10A4E0B4D13
:100BE00000F0C6F8761BB61018BF002406D00134FA
:100BF00055F8043B9847A642F9D170BD70BD00BFBF
:100C00007C0D08007C0D0800840D08007C0D080098
:100C1000024B13B1024800F005B870470000000015
:100C2000310C0800002301461A46184600F014B89B
:100C300038B5074D074C2C1BA41005D0013C55F8C6
:100C4000043D9847002CF9D1BDE8384000F09AB82F
:100C5000940D0800900D08002DE9F047254C06463C
:100C600025688846D5F8484192469946C4B36068DD
:100C70001F2817DC411C76B104EB8003C3F888A061
:100C8000D4F88851012282401543022EC4F88851BD
:100C9000C3F808911ED0831C6160002044F82380B3
:100CA000BDE8F087144B03B34FF4C870AFF3008076
:100CB0000446D0B1D5F84831002784E8880038468A
:100CC000C5F848410121C4F88871C4F88C71002E20
:100CD000E1D0D1E7D4F88C311A43C4F88C21DAE79B
:100CE00005F5A674C5F84841C1E74FF0FF30BDE8EF
:100CF000F08700BF6C0D080000000000080302022E
:100D0000034B0902030302430A03030303460B04D4
:100D1000030304480C03040404430D040404044DB9
:100D20000E04040504400F040505044310050505E1
:100D3000044511060505044712050606044313067B
:100D4000060604441407060604461508060604476A
:100D50001607070704441708080704461807080879
:100D60000443190808080444430000003001072028
:100D7000F8B500BFF8BC08BC9E467047110C0800CF
:100D800019010800F8B500BFF8BC08BC9E467047C2
:040D9000F500080062
:100D94004FF48063204A136002F5007213601F4B06
:100DA4001B6A13F0807F07D11D4A1C4B1A621A4636
:100DB400936E13F0010FFBD01A4A184B1A621A46AD
:100DC400936E13F4803FFBD0144A136B23F0030398
:100DD40043F001031363936E13F0080FFBD0124A20
:100DE4000E4B9A621A46936E13F0020FFBD0112237
:100DF4000A4B1A631A46936E13F0080FFBD01222A3
:100E0400064B1A631A46936E13F0080FFBD0074A79
:100E1400074B1A60704700BF000A0E4000060E40E0
:100E24000908370009083701013F0D2000BD0105FD
:100E34002C0107201B4B984206D800231A4A136042
:100E440002F5007213607047184B984207D84FF4AC
:100E54008073154A136002F5007213607047144BD7
:100E6400984207D84FF400730F4A136002F50072DA
:100E7400136070470F4B984207D84FF440730A4AE7
:100E8400136002F50072136070470B4B984294BFD5
:100E94004FF480634FF4A063034A136002F50072B9
:100EA40013607047BFEA2101000A0E407FF0FA0286
:100EB400FF8FD003FFB3C4047F4A5D0500093D00E2
:100EC400000000001C04072084040720EC04072011
:100ED400000000000000000000000000000000000E
:100EE40000000000000000000000000000000000FE
:100EF40000000000680D0800000000000000000071
:100F040000000000000000000000000000000000DD
:100F140000000000000000000000000000000000CD
:100F240000000000000000000000000000000000BD
:100F340000000000000000000000000000000000AD
:100F4400000000000000000000000000000000009D
:100F5400000000000000000000000000000000008D
:100F6400000000000000000001000000000000007C
:100F74000E33CDAB34126DE6ECDE05000B00000041
:100F8400000000000000000000000000000000005D
:100F9400000000000000000000000000000000004D
:100FA400000000000000000000000000000000003D
:100FB400000000000000000000000000000000002D
:0400000380000981EF
:00000001FF
