S01400004F42435F546573742D4455452E7372656332
S21408000038260720E5090800E1090800E109080084
S214080010E1090800E1090800E109080000000000FD
S214080020000000000000000000000000E1090800D1
S214080030E109080000000000E1090800E1090800DD
S214080040E1090800E1090800E1090800E1090800DB
S214080050E1090800E1090800E1090800E1090800CB
S214080060E1090800E109080000000000550808003A
S214080070690808007D0808009108080000000000CC
S21408008000000000E1090800E1090800E10908008D
S214080090E1090800E1090800E1090800E10908008B
S2140800A0E109080000000000E1090800E10908006D
S2140800B0E1090800E1090800E1090800E10908006B
S2140800C0E1090800E1090800E1090800E10908005B
S2140800D0E1090800E1090800E1090800E10908004B
S2140800E0E1090800E1090800E1090800E10908003B
S2140800F03104080010B5054C237833B9044B13B106
S2140801000448AFF300800123237010BD6005072064
S21408011000000000D80E08000C4B43B10C4810B580
S2140801200C49AFF300800C48036823B910BD0A4891
S214080130036833B97047094B002BF7D0BDE8104069
S2140801401847064B002BF5D0184700BF00000000E4
S214080150D80E080064050720D80E08000000000026
S21408016010B40B01934214D9C9004B0803EBC20222
S214080170B2FBF1F2D3085C1E4FF6FE718C4201D931
S214080180012017E0416841F4002141600CE001209D
S21408019010E0590801EBC202B2FBF3F2D3085C1E6A
S2140801A04FF6FE718C42F2D8120402F4E0221A438B
S2140801B00262002010BC7047084BC0F8E4300023E9
S2140801C043604362836288230360242303604FF4FA
S2140801D0807303604FF40023036070470041535553
S2140801E070B505460C4616460F4B984700220F4B2F
S2140801F01A60A4B13246216828460D4B9847024635
S21408020078B96368A1680B4321690B43E1680B431F
S21408021006490B6069680B436B60104670BD012287
S214080220FBE70122F9E700BFB90108007C050720B3
S2140802306101080040230360704788230360704705
S214080240102303607047242303607047C16070471B
S214080250436913F0020FFBD0C1F30801C161002007
S2140802607047000070B50C46097839B10546044E4B
S2140802702846B04714F8011F0029F9D170BD00BF01
S2140802805102080041607047816070470B680A7920
S2140802901AB330B4DBB200EB4312D2F80042CD7981
S2140802A024F4702444EA0544C2F800424C792CB37E
S2140802B0CC6844F00054C2F804420C6944F0005478
S2140802C0C2F80842D2F80032097923F0E06343EA1C
S2140802D00163C2F8003230BC7047DBB200EB431053
S2140802E00023C0F80032C0F80432C0F80832C0F85C
S2140802F01432C0F81832C0F81C327047CC68C2F8FE
S21408030004420C6900EB4313C3F80842DAE700001E
S21408031070B588B0064600248DF80440044D009455
S21408032069463046A8470134082CF8D108B070BD95
S2140803308D020800F8B546F2A81303FB02F40B1961
S214080340013BB3FBF4F3802B66D84FF4FA5404FB56
S21408035002F4B4EB510F61D84FF47A7303FB02F240
S21408036008274FF0FF363B4604E00133DBB214445F
S2140803701A2B0CD0B1FBF4F5802DF6D804FB151516
S214080380B542F2D215B12E461F46EEE71F4602FBCF
S21408039007F2B1FBF2F1CBB2012B41D90446A7F123
S2140803A00802036823F0010303601E4D5600B718C1
S2140803B005EB4707BB78013B1B0103F07003787811
S2140803C00138000200F4E0600343F878013800F0D2
S2140803D0070003433A79013A120302F440521343E2
S2140803E0CAB2013A120402F4FE02134363612046BD
S2140803F00D4B9847236843F00103236000230B49FD
S2140804002269013312F4001F01D18B42F8D1074844
S214080410181A18BF0120F8BD0020F8BD0020F8BD46
S2140804200020F8BD200E080011030800A086010071
S21408043070470000F8B52B201E4CA0472C20A0477C
S2140804401D4F1E4E3222394630461D4DA8471D4CBC
S214080450322239462046A84730461B4DA847204634
S214080460A8471A4900250D6001230B716FF06043F9
S214080470CB600D612046164FB84716490D6003231A
S2140804800B710F23CB714D71CD603046B8474FF0D6
S214080490FF313046104DA8474FF0FF312046A84799
S2140804A0FF2120460D4B98474FF480520C4B5A605C
S2140804B0F8BD00BF8D09080000BD010500400B40CF
S2140804C03503080000800B4011030800F0050720DC
S2140804D08D02080018060720890208008502080011
S2140804E000E100E010B50E480E4B98473E2100206C
S2140804F00D4B98470D4CA0470028FCD00C4B98474E
S2140805000C4A0D4B9A620D4CA0470028FCD01020D0
S2140805100B4B98470B4B98470148024B984710BD22
S21408052000BD0105A5000720090908005D090800A7
S2140805306D090800013F0D2000060E407D090800E1
S214080540A50808007D0A080010B54FF40042224BA3
S2140805505A600B20214CA0470C20A0470D20A0472E
S2140805600E20A0474FF060513B201D4CA0474FF08F
S21408057060515520A0474FF060515620A0474FF0D5
S21408058000610120A0474FF000610020A0474FF00F
S21408059040513420A0474FF040513520A0474FF037
S2140805A000612F20A0474FF000612E20A0470D497C
S2140805B06820A0470C495C20A0470C4A4FF44071BD
S2140805C00B480C4B98474FF000612B20A0474FF084
S2140805D000612A20A04710BD501A0E408D09080059
S2140805E09906080079000028010000280100000884
S2140805F0000E0E40690708004264B1F1805F16D00D
S2140806000BD849B1B1F1006F05D1036F016F0B40EC
S21408061023EA0203036742607047B1F1405FFBD0EC
S214080620B1F1605FF8D0B1F1205FF4D17047036F85
S21408063013430367EFE7416412F0010F14BF4166E6
S214080640016612F00A0F14BF0162416212F0020F2F
S21408065007D112F0080F18BFC0F884104161016076
S2140806607047C0F88010F9E710B4019C416444B99B
S214080670016643B1016542B941630161016010BC7E
S21408068070474166F5E74165F5E70163F5E7C06C35
S2140806907047806C7047000070B582B00D464309FD
S2140806A003F5001303F207735C0201F0F043B3F19D
S2140806B0205F31D016D8B3F1006F1BD0B3F1805F3E
S2140806C016D100F01F000126864032464FF08051B2
S2140806D02046224B984715F0010F14BF666626661B
S2140806E0012017E0B3F1405F21D0B3F1605F1ED060
S2140806F000200FE000F01F000126864032464FF02B
S21408070000612046154B984715F0010F14BF666622
S2140807102666012002B070BD00F01F0101262A4699
S21408072006FA01F120460E4B98473046F2E705F0E8
S214080730605200F01F01012605EA06030093C5F380
S2140807408003B2F1605F14BF0022012206FA01F1AD
S2140807502046044CA0473046DCE700BFF9050800F1
S214080760370608006906080070B582B005460E46CA
S214080770144602F0F043B3F1205F27D011D8B3F146
S214080780006F16D0B3F1805F11D10A464FF0805142
S214080790194B984714F0010F14BF6E662E66012099
S2140807A012E0B3F1405F15D0B3F1605F12D00020BD
S2140807B00AE00A464FF000610F4B984714F0010F05
S2140807C014BF6E662E66012002B070BD0B4B9847AC
S2140807D00120F9E704F0605204F001030093C4F323
S2140807E08003B2F1605F14BF00220122314628461A
S2140807F0034CA0470120E7E7F9050800370608007C
S214080800690608002DE9F041044688460E4B9847CD
S214080810054620460D4B9847054013D00C4C04F16E
S214080820600603E0B4420DD010345DB12068404540
S214080830F8D161682942F5D0E3689847636825EAE5
S2140808400305EFE7BDE8F0818F0608009306080069
S2140808508005072008B50B210148024B984708BDBC
S214080860000E0E400508080008B50C210148024B8A
S214080870984708BD00100E400508080008B50D2169
S2140808800148024B984708BD00120E4005080800AC
S21408089008B50E210148024B984708BD00140E40C3
S2140808A005080800174A136B23F0700318431063F3
S2140808B0936E13F0080F0AD14FF4006311498A6E3D
S2140808C012F0080F03D1013BF9D1012070470D4AF9
S2140808D0136B23F0030343F002031363936E13F0C2
S2140808E0080F0AD14FF4006306498A6E12F0080F03
S2140808F005D1013BF9D10120704700207047002040
S214080900704700BF00060E40C8B9114A136A0902AC
S21408091089B223F45C1323F0030343F45C1343F017
S21408092001030B431362936E13F0010FFBD0084AC2
S214080930136A43F09B7343F4803313627047044989
S2140809400B6A044A1A40044B13430B62704700BFF5
S21408095000060E40FCFFC8FE02003701024B986EE8
S21408096000F48030704700BF00060E404FF000527B
S214080970014B9A62704700BF00060E40024B986E05
S21408098000F00200704700BF00060E402C281ED854
S2140809901F280CD8114B9A6901238340934318D01B
S2140809A0012303FA00F00D4B186100207047203829
S2140809B00A4BD3F808210123834093430BD0012325
S2140809C003FA00F0054BC3F8000100207047012029
S2140809D07047002070470020704700BF00060E4092
S2140809E0FEE7000008B51C4B1C4A9A4210D01C4B68
S2140809F0194A9A420CD2013B9B1A23F0030304338C
S214080A001344164951F8040B42F8040B9A42F9D1DC
S214080A10144B154A9A420AD2013B9B1A23F0030349
S214080A2004331344002142F8041B9342FBD10F4BB6
S214080A3023F0604222F07F020D498A6003F160438A
S214080A40B3F5801F03D28B6843F000538B60094BC5
S214080A509847094B9847FEE700000720D80E08007D
S214080A6060050720380607206005072000000800F4
S214080A7000ED00E0D10C0800410C08003D4B1B6B54
S214080A8003F00303032B0ED8DFE803F0021C383804
S214080A90394B5B6913F0800F14BF4FF400424FF4D4
S214080AA0FA42364B1A60334B1B6B03F07003702BFD
S214080AB057D0304B1A6B3149C2F302120B68D34039
S214080AC00B6070472B4B1B6A13F0807F03D02C4AB1
S214080AD02A4B1A60E7E72B4A284B1A60254B1B6AF5
S214080AE003F07003102B05D0202BDCD1244A234BAF
S214080AF01A60D8E7244A214B1A60D4E71D4B1B6AB4
S214080B0013F0807F0CD01E4A1C4B1A60194B1B6BC7
S214080B1003F00303022B16D01C4A184B1A60C2E7D0
S214080B20184A164B1A60134B1B6A03F07003102BF7
S214080B3005D0202BEAD1124A104B1A60E6E7124A73
S214080B400E4B1A60E2E70B4A916A926A0B48C1F3A9
S214080B500A41036801FB0333D2B2B3FBF2F3036026
S214080B60A1E7064A13680A49A1FB03135B0813604A
S214080B70704700BF00060E40101A0E4030010720CE
S214080B80001BB70000093D0000127A00001C4E0E3C
S214080B90ABAAAAAA30B587B04FF000610A20124C5B
S214080BA0A0474FF000610B20A0476C460F4D0FCDB5
S214080BB00FC495E8030084E8030011200C4B9847FF
S214080BC00C4C0D4A694620460C4B98474FF0FF31AF
S214080BD020460B4B984720460A4B984720460A4B18
S214080BE0984707B030BD00BF990608008C0E08006D
S214080BF08D0908000080094000BD0105E1010800D4
S214080C004D020800350208004102080010B5074CDE
S214080C102046074B98472046064B98472046064BE3
S214080C2098472046054B984710BD00BF00800940EE
S214080C30470208003B020800350208004102080087
S214080C4008B5184B9847184B98470122174B1A7047
S214080C50BFF35F8F62B6164B4FF40062C3F8842169
S214080C604FF48052C3F88421B02283F82C23C02284
S214080C7083F82B230F4AD36823F4E0631B041B0C6A
S214080C8043F0BF6343F40033D3600B4B98470B4BDA
S214080C9098470B4B98470B490B480C4B9847002036
S214080CA008BD00BFE5040800490508002C01072018
S214080CB000E100E000ED00E0350408000D0C080037
S214080CC0950B0800A40E080000800940650208007D
S214080CD070B50F4E0F4D761BB61018BF002405D002
S214080CE0013455F8043B9847A642F9D10A4E0B4DF5
S214080CF000F0E0F8761BB61018BF002406D00134C2
S214080D0055F8043B9847A642F9D170BD70BD00BFA0
S214080D10C00E0800C00E0800C80E0800C00E080066
S214080D20024B13B1024800F005B8704700000000F7
S214080D30410D0800002301461A46184600F01AB866
S214080D4038B50A4C0A4D641BA4100AD004F1804337
S214080D50013B05EB8305013C55F804399847002C00
S214080D60F9D1BDE8384000F0AFB800BFD80E08008B
S214080D70D40E08002DE9F047274C07462668884613
S214080D80D6F8484192469946002C3CD065681F2DF7
S214080D901ADC05F1010E7FB1012004EB8503C3F8C8
S214080DA088A0D4F8881100FA05F21143022FC4F877
S214080DB08811C3F8089120D00235C4F804E0002052
S214080DC044F82580BDE8F087144B0BB34FF4C87081
S214080DD0AFF300800446D8B10020D6F848314FF06B
S214080DE0010E606023600546C6F84841C4F88801CD
S214080DF0C4F88C01002FDFD0CEE7D4F88C311A4324
S214080E00C4F88C21D8E706F5A674C6F84841BDE7AD
S214080E104FF0FF30BDE8F087B00E08000000000075
S214080E2008030202034B0902030302430A030303EF
S214080E3003460B04030304480C03040404430D048C
S214080E400404044D0E04040504400F040505044379
S214080E50100505050445110605050447120506068E
S214080E600443130606060444140706060446150833
S214080E700606044716070707044417080807044623
S214080E8018070808044319080808044400960000D0
S214080E90C00000000008000000000000000000007D
S214080EA0000000007465737420737472696E6700BE
S214080EB038010720F8B500BFF8BC08BC9E46704746
S214080EC0210D080019010800F8B500BFF8BC08BCD9
S20C080ED09E467047F500080075
S214080ED84FF48063204A136002F5007213601F4BB4
S214080EE81B6A13F0807F07D11D4A1C4B1A621A46E4
S214080EF8936E13F0010FFBD01A4A184B1A621A465B
S214080F08936E13F4803FFBD0144A136B23F0030345
S214080F1843F001031363936E13F0080FFBD0124ACD
S214080F280E4B9A621A46936E13F0020FFBD01122E4
S214080F380A4B1A631A46936E13F0080FFBD0122250
S214080F48064B1A631A46936E13F0080FFBD0074A27
S214080F58074B1A60704700BF000A0E4000060E408E
S214080F680908370009083701013F0D2000BD0105AB
S214080F78300107201B4B984215D91B4B984219D9A4
S214080F881A4B98421ED91A4B984223D9194B98429D
S214080F9894BF4FF480634FF4A063174A136002F5B2
S214080FA80072136070470023134A136002F5007234
S214080FB8136070474FF480730F4A136002F5007287
S214080FC8136070474FF400730B4A136002F50072FB
S214080FD8136070474FF44073074A136002F50072AF
S214080FE813607047BFEA21017FF0FA02FF8FD0032B
S214080FF8FFB3C4047F4A5D05000A0E4001000000DE
S21408100800093D0000000000000000002404072036
S2140810188C040720F40407200000000000000000E5
S21408102800000000000000000000000000000000AB
S214081038000000000000000000000000000000009B
S214081048000000000000000000000000000000008B
S214081058000000000000000000000000000000007B
S214081068000000000000000000000000000000006B
S214081078000000000000000000000000000000005B
S214081088000000000000000000000000000000004B
S214081098000000000000000000000000000000003B
S2140810A8000000000000000000000000000000002B
S2140810B801000000000000000E33CDAB34126DE6C8
S2140810C8ECDE05000B000000000000000000000031
S2140810D800000000000000000000000000000000FB
S2140810E800000000000000000000000000000000EB
S2140810F800000000000000000000000000000000DB
S21408110800000000000000000000000000000000CA
S8040809E505
