S01000004F42432D4D61696E2E737265638E
S214080000B824072001020800FD010800FD010800C9
S214080010FD010800FD010800FD01080000000000C1
S214080020000000000000000000000000FD010800BD
S214080030FD01080000000000FD010800FD010800A1
S214080040FD010800FD010800FD010800FD0108008B
S214080050FD010800FD010800FD010800FD0108007B
S214080060FD010800FD01080000000000A1010800CD
S214080070B5010800C9010800DD01080000000000FD
S21408008000000000FD010800FD010800FD01080051
S214080090FD010800FD010800FD010800FD0108003B
S2140800A0FD01080000000000FD010800FD01080031
S2140800B0FD010800FD010800FD010800FD0108001B
S2140800C0FD010800FD010800FD010800FD0108000B
S2140800D0FD010800FD010800FD010800FD010800FB
S2140800E0FD010800FD010800FD010800FD010800EB
S2140800F0FD01080010B5054C237833B9044B13B13D
S2140801000448AFF300800123237010BD280407209D
S2140801100000000020040800084B10B51BB1084971
S2140801200848AFF300800848036803B910BD074BBA
S214080130002BFBD0BDE81040184700BF00000000A9
S2140801402C040720200408002004080000000000F3
S2140801502DE9F041044688460E4B9847054620464A
S2140801600D4B9847054013D00C4C04F160062368E5
S214080170434508D16168294205D0E3684046984758
S214080180636825EA0305B44202D01034002DEED188
S214080190BDE8F081F1010800F501080044040720D5
S2140801A008B50B210148024B984708BD000E0E40C3
S2140801B05101080008B50C210148024B984708BDB4
S2140801C000100E405101080008B50D210148024BE9
S2140801D0984708BD00120E405101080008B50E21C8
S2140801E00148024B984708BD00140E40510108000C
S2140801F0C06C7047806C7047704700BFFEE700BF52
S21408020008B51E4B1E4A9A4203D01E4B1B4A9A42FA
S21408021004D31D4B1D4A9A420FD31AE017491C4BAC
S2140802205B1A23F003030433154A134452F8040BED
S21408023041F8040B9A42F9D1EBE7164B164AD21A44
S21408024022F003021A44043B002143F8041B93429D
S214080250FBD1124B23F0604222F07F0210498A60DD
S21408026003F16043B3F5801F03D28B6843F0005355
S2140802708B600C4B98470C4B9847FEE7000007200E
S2140802802004080028040720B404072028040720B0
S214080290270407202C040720B704072000000800BE
S2140802A000ED00E0B9020800AD02080008B5014BF1
S2140802B09847FEE7F901080070B50F4E0F4D761BFC
S2140802C0B61018BF002405D0013455F8043B9847EB
S2140802D0A642F9D10A4E0B4D00F090F8761BB610E0
S2140802E018BF002406D0013455F8043B9847A642A8
S2140802F0F9D170BD70BD00BF0804080008040800E6
S2140803001004080008040800024B13B1024800F065
S21408031005B87047000000002903080000230146BE
S2140803201A46184600F014B838B5074D074C2C1B6B
S214080330A41005D0013C55F8043D9847002CF9D187
S214080340BDE8384000F064B8200408001C04080023
S2140803502DE9F047254C064625688846D5F84841D5
S21408036092469946C4B360681F2817DC411C76B1CC
S21408037004EB8003C3F888A0D4F888510122824091
S2140803801543022EC4F88851C3F808911ED0831C62
S2140803906160002044F82380BDE8F087144B03B35F
S2140803A04FF4C870AFF300800446D0B1D5F8483192
S2140803B0002784E888003846C5F848410121C4F873
S2140803C08871C4F88C71002EE1D0D1E7D4F88C314E
S2140803D01A43C4F88C21DAE705F5A674C5F848412F
S2140803E0C1E74FF0FF30BDE8F08700BFF80308000C
S2140803F0000000004300000000000720F8B500BF1A
S214080400F8BC08BC9E467047090308001901080096
S214080410F8B500BFF8BC08BC9E467047F500080053
S21408042000000000EC02072054030720BC03072046
S21408043000000000000000000000000000000000AF
S214080440000000000000000000000000000000009F
S21408045000000000F4030800000000000000000090
S214080460000000000000000000000000000000007F
S214080470000000000000000000000000000000006F
S214080480000000000000000000000000000000005F
S214080490000000000000000000000000000000004F
S2140804A0000000000000000000000000000000003F
S2140804B0000000000000000000000000000000002F
S2140804C0000000000000000001000000000000001E
S2140804D00E33CDAB34126DE6ECDE05000B000000E3
S2140804E000000000000000000000000000000000FF
S2140804F000000000000000000000000000000000EF
S21408050000000000000000000000000000000000DE
S21408051000000000000000000000000000000000CE
S804080201F0
